{
  "_format": "hh-sol-artifact-1",
  "contractName": "Exchange",
  "sourceName": "contracts/Exchange.sol",
  "abi": [
    {
      "inputs": [],
      "stateMutability": "nonpayable",
      "type": "constructor"
    },
    {
      "inputs": [
        {
          "internalType": "uint256",
          "name": "amountY",
          "type": "uint256"
        }
      ],
      "name": "acceptOffer",
      "outputs": [],
      "stateMutability": "nonpayable",
      "type": "function"
    },
    {
      "inputs": [],
      "name": "cancelOffer",
      "outputs": [],
      "stateMutability": "nonpayable",
      "type": "function"
    },
    {
      "inputs": [
        {
          "internalType": "address",
          "name": "_tokenX",
          "type": "address"
        },
        {
          "internalType": "address",
          "name": "_tokenY",
          "type": "address"
        },
        {
          "internalType": "uint256",
          "name": "_amountX",
          "type": "uint256"
        },
        {
          "internalType": "uint256",
          "name": "_price",
          "type": "uint256"
        }
      ],
      "name": "createOffer",
      "outputs": [],
      "stateMutability": "nonpayable",
      "type": "function"
    },
    {
      "inputs": [],
      "name": "initializer",
      "outputs": [
        {
          "internalType": "address",
          "name": "",
          "type": "address"
        }
      ],
      "stateMutability": "view",
      "type": "function"
    },
    {
      "inputs": [],
      "name": "outstandingOffer",
      "outputs": [
        {
          "internalType": "bool",
          "name": "",
          "type": "bool"
        }
      ],
      "stateMutability": "view",
      "type": "function"
    },
    {
      "inputs": [],
      "name": "owner",
      "outputs": [
        {
          "internalType": "address",
          "name": "",
          "type": "address"
        }
      ],
      "stateMutability": "view",
      "type": "function"
    },
    {
      "inputs": [],
      "name": "price",
      "outputs": [
        {
          "internalType": "uint256",
          "name": "",
          "type": "uint256"
        }
      ],
      "stateMutability": "view",
      "type": "function"
    },
    {
      "inputs": [],
      "name": "tokenX",
      "outputs": [
        {
          "internalType": "address",
          "name": "",
          "type": "address"
        }
      ],
      "stateMutability": "view",
      "type": "function"
    },
    {
      "inputs": [],
      "name": "tokenY",
      "outputs": [
        {
          "internalType": "address",
          "name": "",
          "type": "address"
        }
      ],
      "stateMutability": "view",
      "type": "function"
    },
    {
      "inputs": [
        {
          "internalType": "uint256",
          "name": "newPrice",
          "type": "uint256"
        }
      ],
      "name": "updatePrice",
      "outputs": [],
      "stateMutability": "nonpayable",
      "type": "function"
    }
  ],
  "bytecode": "0x60806040526000600460146101000a81548160ff0219169083151502179055503480156200002c57600080fd5b506200005c6040518060600160405280602b8152602001620017f6602b9139620000a360201b62000cfd1760201c565b33600360006101000a81548173ffffffffffffffffffffffffffffffffffffffff021916908373ffffffffffffffffffffffffffffffffffffffff16021790555062000237565b6200014381604051602401620000ba9190620001b0565b6040516020818303038152906040527f41304fac000000000000000000000000000000000000000000000000000000007bffffffffffffffffffffffffffffffffffffffffffffffffffffffff19166020820180517bffffffffffffffffffffffffffffffffffffffffffffffffffffffff83818316178352505050506200014660201b60201c565b50565b60008151905060006a636f6e736f6c652e6c6f679050602083016000808483855afa5050505050565b60006200017c82620001d4565b620001888185620001df565b93506200019a818560208601620001f0565b620001a58162000226565b840191505092915050565b60006020820190508181036000830152620001cc81846200016f565b905092915050565b600081519050919050565b600082825260208201905092915050565b60005b8381101562000210578082015181840152602081019050620001f3565b8381111562000220576000848401525b50505050565b6000601f19601f8301169050919050565b6115af80620002476000396000f3fe608060405234801561001057600080fd5b506004361061009e5760003560e01c80639ce110d7116100665780639ce110d714610123578063a035b1fe14610141578063b7d19fc41461015f578063c815729d1461017d578063cc1d179b146101995761009e565b806316dc165b146100a35780633a7dc9a4146100c157806362d05c78146100df5780638d6cc56d146100e95780638da5cb5b14610105575b600080fd5b6100ab6101b5565b6040516100b891906110c8565b60405180910390f35b6100c96101d9565b6040516100d69190611143565b60405180910390f35b6100e76101ec565b005b61010360048036038101906100fe9190610f3e565b6104a5565b005b61010d6105fd565b60405161011a91906110c8565b60405180910390f35b61012b610623565b60405161013891906110c8565b60405180910390f35b610149610649565b604051610156919061127e565b60405180910390f35b61016761064f565b60405161017491906110c8565b60405180910390f35b61019760048036038101906101929190610f3e565b610675565b005b6101b360048036038101906101ae9190610eb2565b610aa8565b005b60008054906101000a900473ffffffffffffffffffffffffffffffffffffffff1681565b600460149054906101000a900460ff1681565b600460009054906101000a900473ffffffffffffffffffffffffffffffffffffffff1673ffffffffffffffffffffffffffffffffffffffff163373ffffffffffffffffffffffffffffffffffffffff161461027c576040517f08c379a0000000000000000000000000000000000000000000000000000000008152600401610273906111de565b60405180910390fd5b60011515600460149054906101000a900460ff161515146102d2576040517f08c379a00000000000000000000000000000000000000000000000000000000081526004016102c99061123e565b60405180910390fd5b6103106040518060400160405280601081526020017f43616e63656c6c696e67206f6666657200000000000000000000000000000000815250610cfd565b6000600460146101000a81548160ff02191690831515021790555060008054906101000a900473ffffffffffffffffffffffffffffffffffffffff1673ffffffffffffffffffffffffffffffffffffffff1663a9059cbb600460009054906101000a900473ffffffffffffffffffffffffffffffffffffffff1660008054906101000a900473ffffffffffffffffffffffffffffffffffffffff1673ffffffffffffffffffffffffffffffffffffffff166370a08231306040518263ffffffff1660e01b81526004016103e391906110c8565b60206040518083038186803b1580156103fb57600080fd5b505afa15801561040f573d6000803e3d6000fd5b505050506040513d601f19601f820116820180604052508101906104339190610f67565b6040518363ffffffff1660e01b815260040161045092919061111a565b602060405180830381600087803b15801561046a57600080fd5b505af115801561047e573d6000803e3d6000fd5b505050506040513d601f19601f820116820180604052508101906104a29190610f15565b50565b600460009054906101000a900473ffffffffffffffffffffffffffffffffffffffff1673ffffffffffffffffffffffffffffffffffffffff163373ffffffffffffffffffffffffffffffffffffffff1614610535576040517f08c379a000000000000000000000000000000000000000000000000000000000815260040161052c906111de565b60405180910390fd5b60011515600460149054906101000a900460ff1615151461058b576040517f08c379a00000000000000000000000000000000000000000000000000000000081526004016105829061123e565b60405180910390fd5b600081116105ce576040517f08c379a00000000000000000000000000000000000000000000000000000000081526004016105c5906111be565b60405180910390fd5b6105f36040518060600160405280602681526020016115546026913960025483610d96565b8060028190555050565b600360009054906101000a900473ffffffffffffffffffffffffffffffffffffffff1681565b600460009054906101000a900473ffffffffffffffffffffffffffffffffffffffff1681565b60025481565b600160009054906101000a900473ffffffffffffffffffffffffffffffffffffffff1681565b60011515600460149054906101000a900460ff161515146106cb576040517f08c379a00000000000000000000000000000000000000000000000000000000081526004016106c29061123e565b60405180910390fd5b6000811161070e576040517f08c379a0000000000000000000000000000000000000000000000000000000008152600401610705906111fe565b60405180910390fd5b60008054906101000a900473ffffffffffffffffffffffffffffffffffffffff1673ffffffffffffffffffffffffffffffffffffffff166370a08231306040518263ffffffff1660e01b815260040161076791906110c8565b60206040518083038186803b15801561077f57600080fd5b505afa158015610793573d6000803e3d6000fd5b505050506040513d601f19601f820116820180604052508101906107b79190610f67565b600254826107c591906112b5565b1115610806576040517f08c379a00000000000000000000000000000000000000000000000000000000081526004016107fd9061125e565b60405180910390fd5b61082760405180606001604052806040815260200161151460409139610cfd565b600160009054906101000a900473ffffffffffffffffffffffffffffffffffffffff1673ffffffffffffffffffffffffffffffffffffffff166323b872dd33600460009054906101000a900473ffffffffffffffffffffffffffffffffffffffff16846040518463ffffffff1660e01b81526004016108a8939291906110e3565b602060405180830381600087803b1580156108c257600080fd5b505af11580156108d6573d6000803e3d6000fd5b505050506040513d601f19601f820116820180604052508101906108fa9190610f15565b5061091c6040518060600160405280603781526020016114dd60379139610cfd565b60008054906101000a900473ffffffffffffffffffffffffffffffffffffffff1673ffffffffffffffffffffffffffffffffffffffff1663a9059cbb336002548461096791906112b5565b6040518363ffffffff1660e01b815260040161098492919061111a565b602060405180830381600087803b15801561099e57600080fd5b505af11580156109b2573d6000803e3d6000fd5b505050506040513d601f19601f820116820180604052508101906109d69190610f15565b5060008060009054906101000a900473ffffffffffffffffffffffffffffffffffffffff1673ffffffffffffffffffffffffffffffffffffffff166370a08231306040518263ffffffff1660e01b8152600401610a3391906110c8565b60206040518083038186803b158015610a4b57600080fd5b505afa158015610a5f573d6000803e3d6000fd5b505050506040513d601f19601f82011682018060405250810190610a839190610f67565b1415610aa5576000600460146101000a81548160ff0219169083151502179055505b50565b60001515600460149054906101000a900460ff16151514610afe576040517f08c379a0000000000000000000000000000000000000000000000000000000008152600401610af59061121e565b60405180910390fd5b60008111610b41576040517f08c379a0000000000000000000000000000000000000000000000000000000008152600401610b38906111be565b60405180910390fd5b836000806101000a81548173ffffffffffffffffffffffffffffffffffffffff021916908373ffffffffffffffffffffffffffffffffffffffff16021790555082600160006101000a81548173ffffffffffffffffffffffffffffffffffffffff021916908373ffffffffffffffffffffffffffffffffffffffff1602179055508060028190555033600460006101000a81548173ffffffffffffffffffffffffffffffffffffffff021916908373ffffffffffffffffffffffffffffffffffffffff1602179055506001600460146101000a81548160ff02191690831515021790555060008054906101000a900473ffffffffffffffffffffffffffffffffffffffff1673ffffffffffffffffffffffffffffffffffffffff166323b872dd600460009054906101000a900473ffffffffffffffffffffffffffffffffffffffff1630856040518463ffffffff1660e01b8152600401610ca4939291906110e3565b602060405180830381600087803b158015610cbe57600080fd5b505af1158015610cd2573d6000803e3d6000fd5b505050506040513d601f19601f82011682018060405250810190610cf69190610f15565b5050505050565b610d9381604051602401610d11919061115e565b6040516020818303038152906040527f41304fac000000000000000000000000000000000000000000000000000000007bffffffffffffffffffffffffffffffffffffffffffffffffffffffff19166020820180517bffffffffffffffffffffffffffffffffffffffffffffffffffffffff8381831617835250505050610e35565b50565b610e30838383604051602401610dae93929190611180565b6040516020818303038152906040527f969cdd03000000000000000000000000000000000000000000000000000000007bffffffffffffffffffffffffffffffffffffffffffffffffffffffff19166020820180517bffffffffffffffffffffffffffffffffffffffffffffffffffffffff8381831617835250505050610e35565b505050565b60008151905060006a636f6e736f6c652e6c6f679050602083016000808483855afa5050505050565b600081359050610e6d81611497565b92915050565b600081519050610e82816114ae565b92915050565b600081359050610e97816114c5565b92915050565b600081519050610eac816114c5565b92915050565b60008060008060808587031215610ec857600080fd5b6000610ed687828801610e5e565b9450506020610ee787828801610e5e565b9350506040610ef887828801610e88565b9250506060610f0987828801610e88565b91505092959194509250565b600060208284031215610f2757600080fd5b6000610f3584828501610e73565b91505092915050565b600060208284031215610f5057600080fd5b6000610f5e84828501610e88565b91505092915050565b600060208284031215610f7957600080fd5b6000610f8784828501610e9d565b91505092915050565b610f99816112e6565b82525050565b610fa8816112f8565b82525050565b6000610fb982611299565b610fc381856112a4565b9350610fd381856020860161132e565b610fdc81611390565b840191505092915050565b6000610ff46010836112a4565b9150610fff826113a1565b602082019050919050565b60006110176012836112a4565b9150611022826113ca565b602082019050919050565b600061103a601b836112a4565b9150611045826113f3565b602082019050919050565b600061105d6019836112a4565b91506110688261141c565b602082019050919050565b60006110806011836112a4565b915061108b82611445565b602082019050919050565b60006110a3600f836112a4565b91506110ae8261146e565b602082019050919050565b6110c281611324565b82525050565b60006020820190506110dd6000830184610f90565b92915050565b60006060820190506110f86000830186610f90565b6111056020830185610f90565b61111260408301846110b9565b949350505050565b600060408201905061112f6000830185610f90565b61113c60208301846110b9565b9392505050565b60006020820190506111586000830184610f9f565b92915050565b600060208201905081810360008301526111788184610fae565b905092915050565b6000606082019050818103600083015261119a8186610fae565b90506111a960208301856110b9565b6111b660408301846110b9565b949350505050565b600060208201905081810360008301526111d781610fe7565b9050919050565b600060208201905081810360008301526111f78161100a565b9050919050565b600060208201905081810360008301526112178161102d565b9050919050565b6000602082019050818103600083015261123781611050565b9050919050565b6000602082019050818103600083015261125781611073565b9050919050565b6000602082019050818103600083015261127781611096565b9050919050565b600060208201905061129360008301846110b9565b92915050565b600081519050919050565b600082825260208201905092915050565b60006112c082611324565b91506112cb83611324565b9250826112db576112da611361565b5b828204905092915050565b60006112f182611304565b9050919050565b60008115159050919050565b600073ffffffffffffffffffffffffffffffffffffffff82169050919050565b6000819050919050565b60005b8381101561134c578082015181840152602081019050611331565b8381111561135b576000848401525b50505050565b7f4e487b7100000000000000000000000000000000000000000000000000000000600052601260045260246000fd5b6000601f19601f8301169050919050565b7f5072696365206d757374206265203e3000000000000000000000000000000000600082015250565b7f4e6f74206f776e6572206f66206f666665720000000000000000000000000000600082015250565b7f4d75737420616363657074206e6f6e2d7a65726f20616d6f756e740000000000600082015250565b7f416c72656164792068617665206f66666572206c697374656400000000000000600082015250565b7f4e6f206578697374696e67206f66666572000000000000000000000000000000600082015250565b7f547261646520746f6f206c617267650000000000000000000000000000000000600082015250565b6114a0816112e6565b81146114ab57600080fd5b50565b6114b7816112f8565b81146114c257600080fd5b50565b6114ce81611324565b81146114d957600080fd5b5056fe417474656d7074696e6720746f207472616e7366657220746f6b656e582066726f6d20636f6e747261637420746f206163636570746572417474656d7074696e6720746f207472616e7366657220746f6b656e592066726f6d20616363657074657220746f206f6666657220696e697469616c697a65724368616e67696e67206f666665722070726963652066726f6d202725732720746f2027257327a2646970667358221220a4c9f0d26d478cb8f53692d7a70832e7819426b907065d94722fc0b2c8ef4d6664736f6c634300080400334465706c6f79696e6720612062617369632065786368616e676520666f7220746f6b656e73205820262059",
  "linkReferences": {},
  "deployedLinkReferences": {}
}